{
  "_format": "hh-sol-artifact-1",
  "contractName": "FileStorage",
  "sourceName": "contracts/FileStorage.sol",
  "abi": [
    {
      "anonymous": false,
      "inputs": [
        {
          "indexed": false,
          "internalType": "uint256",
          "name": "id",
          "type": "uint256"
        },
        {
          "indexed": false,
          "internalType": "string",
          "name": "ipfsHash",
          "type": "string"
        },
        {
          "indexed": false,
          "internalType": "string",
          "name": "fileName",
          "type": "string"
        },
        {
          "indexed": false,
          "internalType": "string",
          "name": "fileType",
          "type": "string"
        },
        {
          "indexed": false,
          "internalType": "uint256",
          "name": "uploadTime",
          "type": "uint256"
        },
        {
          "indexed": false,
          "internalType": "address",
          "name": "uploader",
          "type": "address"
        }
      ],
      "name": "FileUploaded",
      "type": "event"
    },
    {
      "inputs": [],
      "name": "fileCount",
      "outputs": [
        {
          "internalType": "uint256",
          "name": "",
          "type": "uint256"
        }
      ],
      "stateMutability": "view",
      "type": "function"
    },
    {
      "inputs": [
        {
          "internalType": "uint256",
          "name": "",
          "type": "uint256"
        }
      ],
      "name": "files",
      "outputs": [
        {
          "internalType": "uint256",
          "name": "id",
          "type": "uint256"
        },
        {
          "internalType": "string",
          "name": "ipfsHash",
          "type": "string"
        },
        {
          "internalType": "string",
          "name": "fileName",
          "type": "string"
        },
        {
          "internalType": "string",
          "name": "fileType",
          "type": "string"
        },
        {
          "internalType": "uint256",
          "name": "uploadTime",
          "type": "uint256"
        },
        {
          "internalType": "address",
          "name": "uploader",
          "type": "address"
        }
      ],
      "stateMutability": "view",
      "type": "function"
    },
    {
      "inputs": [],
      "name": "getAllFiles",
      "outputs": [
        {
          "components": [
            {
              "internalType": "uint256",
              "name": "id",
              "type": "uint256"
            },
            {
              "internalType": "string",
              "name": "ipfsHash",
              "type": "string"
            },
            {
              "internalType": "string",
              "name": "fileName",
              "type": "string"
            },
            {
              "internalType": "string",
              "name": "fileType",
              "type": "string"
            },
            {
              "internalType": "uint256",
              "name": "uploadTime",
              "type": "uint256"
            },
            {
              "internalType": "address",
              "name": "uploader",
              "type": "address"
            }
          ],
          "internalType": "struct FileStorage.File[]",
          "name": "",
          "type": "tuple[]"
        }
      ],
      "stateMutability": "view",
      "type": "function"
    },
    {
      "inputs": [
        {
          "internalType": "uint256",
          "name": "_fileId",
          "type": "uint256"
        }
      ],
      "name": "getFile",
      "outputs": [
        {
          "components": [
            {
              "internalType": "uint256",
              "name": "id",
              "type": "uint256"
            },
            {
              "internalType": "string",
              "name": "ipfsHash",
              "type": "string"
            },
            {
              "internalType": "string",
              "name": "fileName",
              "type": "string"
            },
            {
              "internalType": "string",
              "name": "fileType",
              "type": "string"
            },
            {
              "internalType": "uint256",
              "name": "uploadTime",
              "type": "uint256"
            },
            {
              "internalType": "address",
              "name": "uploader",
              "type": "address"
            }
          ],
          "internalType": "struct FileStorage.File",
          "name": "",
          "type": "tuple"
        }
      ],
      "stateMutability": "view",
      "type": "function"
    },
    {
      "inputs": [
        {
          "internalType": "string",
          "name": "_ipfsHash",
          "type": "string"
        },
        {
          "internalType": "string",
          "name": "_fileName",
          "type": "string"
        },
        {
          "internalType": "string",
          "name": "_fileType",
          "type": "string"
        }
      ],
      "name": "uploadFile",
      "outputs": [],
      "stateMutability": "nonpayable",
      "type": "function"
    }
  ],
  "bytecode": "0x608060405234801561001057600080fd5b50611440806100206000396000f3fe608060405234801561001057600080fd5b50600436106100575760003560e01c80632bfda3131461005c578063439535191461008c57806392bb481a146100aa578063f4c714b4146100c6578063ff24b5d5146100fb575b600080fd5b61007660048036038101906100719190610a3c565b610119565b6040516100839190610be0565b60405180910390f35b610094610365565b6040516100a19190610c11565b60405180910390f35b6100c460048036038101906100bf9190610d61565b61036b565b005b6100e060048036038101906100db9190610a3c565b6104c4565b6040516100f296959493929190610e61565b60405180910390f35b6101036106b8565b6040516101109190611030565b60405180910390f35b6101216109a6565b6000808381526020019081526020016000206040518060c00160405290816000820154815260200160018201805461015890611081565b80601f016020809104026020016040519081016040528092919081815260200182805461018490611081565b80156101d15780601f106101a6576101008083540402835291602001916101d1565b820191906000526020600020905b8154815290600101906020018083116101b457829003601f168201915b505050505081526020016002820180546101ea90611081565b80601f016020809104026020016040519081016040528092919081815260200182805461021690611081565b80156102635780601f1061023857610100808354040283529160200191610263565b820191906000526020600020905b81548152906001019060200180831161024657829003601f168201915b5050505050815260200160038201805461027c90611081565b80601f01602080910402602001604051908101604052809291908181526020018280546102a890611081565b80156102f55780601f106102ca576101008083540402835291602001916102f5565b820191906000526020600020905b8154815290600101906020018083116102d857829003601f168201915b50505050508152602001600482015481526020016005820160009054906101000a900473ffffffffffffffffffffffffffffffffffffffff1673ffffffffffffffffffffffffffffffffffffffff1673ffffffffffffffffffffffffffffffffffffffff16815250509050919050565b60015481565b6001600081548092919061037e906110e1565b91905055506040518060c0016040528060015481526020018481526020018381526020018281526020014281526020013373ffffffffffffffffffffffffffffffffffffffff1681525060008060015481526020019081526020016000206000820151816000015560208201518160010190816103fb91906112d5565b50604082015181600201908161041191906112d5565b50606082015181600301908161042791906112d5565b506080820151816004015560a08201518160050160006101000a81548173ffffffffffffffffffffffffffffffffffffffff021916908373ffffffffffffffffffffffffffffffffffffffff1602179055509050507f2d593ba9b4e83f2164b0c8fbb7976324d796c24393fc347bf399878774abf4ec60015484848442336040516104b796959493929190610e61565b60405180910390a1505050565b60006020528060005260406000206000915090508060000154908060010180546104ed90611081565b80601f016020809104026020016040519081016040528092919081815260200182805461051990611081565b80156105665780601f1061053b57610100808354040283529160200191610566565b820191906000526020600020905b81548152906001019060200180831161054957829003601f168201915b50505050509080600201805461057b90611081565b80601f01602080910402602001604051908101604052809291908181526020018280546105a790611081565b80156105f45780601f106105c9576101008083540402835291602001916105f4565b820191906000526020600020905b8154815290600101906020018083116105d757829003601f168201915b50505050509080600301805461060990611081565b80601f016020809104026020016040519081016040528092919081815260200182805461063590611081565b80156106825780601f1061065757610100808354040283529160200191610682565b820191906000526020600020905b81548152906001019060200180831161066557829003601f168201915b5050505050908060040154908060050160009054906101000a900473ffffffffffffffffffffffffffffffffffffffff16905086565b6060600060015467ffffffffffffffff8111156106d8576106d7610c36565b5b60405190808252806020026020018201604052801561071157816020015b6106fe6109a6565b8152602001906001900390816106f65790505b5090506000600190505b600154811161099e576000808281526020019081526020016000206040518060c00160405290816000820154815260200160018201805461075b90611081565b80601f016020809104026020016040519081016040528092919081815260200182805461078790611081565b80156107d45780601f106107a9576101008083540402835291602001916107d4565b820191906000526020600020905b8154815290600101906020018083116107b757829003601f168201915b505050505081526020016002820180546107ed90611081565b80601f016020809104026020016040519081016040528092919081815260200182805461081990611081565b80156108665780601f1061083b57610100808354040283529160200191610866565b820191906000526020600020905b81548152906001019060200180831161084957829003601f168201915b5050505050815260200160038201805461087f90611081565b80601f01602080910402602001604051908101604052809291908181526020018280546108ab90611081565b80156108f85780601f106108cd576101008083540402835291602001916108f8565b820191906000526020600020905b8154815290600101906020018083116108db57829003601f168201915b50505050508152602001600482015481526020016005820160009054906101000a900473ffffffffffffffffffffffffffffffffffffffff1673ffffffffffffffffffffffffffffffffffffffff1673ffffffffffffffffffffffffffffffffffffffff16815250508260018361096f91906113a7565b815181106109805761097f6113db565b5b60200260200101819052508080610996906110e1565b91505061071b565b508091505090565b6040518060c001604052806000815260200160608152602001606081526020016060815260200160008152602001600073ffffffffffffffffffffffffffffffffffffffff1681525090565b6000604051905090565b600080fd5b600080fd5b6000819050919050565b610a1981610a06565b8114610a2457600080fd5b50565b600081359050610a3681610a10565b92915050565b600060208284031215610a5257610a516109fc565b5b6000610a6084828501610a27565b91505092915050565b610a7281610a06565b82525050565b600081519050919050565b600082825260208201905092915050565b60005b83811015610ab2578082015181840152602081019050610a97565b60008484015250505050565b6000601f19601f8301169050919050565b6000610ada82610a78565b610ae48185610a83565b9350610af4818560208601610a94565b610afd81610abe565b840191505092915050565b600073ffffffffffffffffffffffffffffffffffffffff82169050919050565b6000610b3382610b08565b9050919050565b610b4381610b28565b82525050565b600060c083016000830151610b616000860182610a69565b5060208301518482036020860152610b798282610acf565b91505060408301518482036040860152610b938282610acf565b91505060608301518482036060860152610bad8282610acf565b9150506080830151610bc26080860182610a69565b5060a0830151610bd560a0860182610b3a565b508091505092915050565b60006020820190508181036000830152610bfa8184610b49565b905092915050565b610c0b81610a06565b82525050565b6000602082019050610c266000830184610c02565b92915050565b600080fd5b600080fd5b7f4e487b7100000000000000000000000000000000000000000000000000000000600052604160045260246000fd5b610c6e82610abe565b810181811067ffffffffffffffff82111715610c8d57610c8c610c36565b5b80604052505050565b6000610ca06109f2565b9050610cac8282610c65565b919050565b600067ffffffffffffffff821115610ccc57610ccb610c36565b5b610cd582610abe565b9050602081019050919050565b82818337600083830152505050565b6000610d04610cff84610cb1565b610c96565b905082815260208101848484011115610d2057610d1f610c31565b5b610d2b848285610ce2565b509392505050565b600082601f830112610d4857610d47610c2c565b5b8135610d58848260208601610cf1565b91505092915050565b600080600060608486031215610d7a57610d796109fc565b5b600084013567ffffffffffffffff811115610d9857610d97610a01565b5b610da486828701610d33565b935050602084013567ffffffffffffffff811115610dc557610dc4610a01565b5b610dd186828701610d33565b925050604084013567ffffffffffffffff811115610df257610df1610a01565b5b610dfe86828701610d33565b9150509250925092565b600082825260208201905092915050565b6000610e2482610a78565b610e2e8185610e08565b9350610e3e818560208601610a94565b610e4781610abe565b840191505092915050565b610e5b81610b28565b82525050565b600060c082019050610e766000830189610c02565b8181036020830152610e888188610e19565b90508181036040830152610e9c8187610e19565b90508181036060830152610eb08186610e19565b9050610ebf6080830185610c02565b610ecc60a0830184610e52565b979650505050505050565b600081519050919050565b600082825260208201905092915050565b6000819050602082019050919050565b600060c083016000830151610f1b6000860182610a69565b5060208301518482036020860152610f338282610acf565b91505060408301518482036040860152610f4d8282610acf565b91505060608301518482036060860152610f678282610acf565b9150506080830151610f7c6080860182610a69565b5060a0830151610f8f60a0860182610b3a565b508091505092915050565b6000610fa68383610f03565b905092915050565b6000602082019050919050565b6000610fc682610ed7565b610fd08185610ee2565b935083602082028501610fe285610ef3565b8060005b8581101561101e5784840389528151610fff8582610f9a565b945061100a83610fae565b925060208a01995050600181019050610fe6565b50829750879550505050505092915050565b6000602082019050818103600083015261104a8184610fbb565b905092915050565b7f4e487b7100000000000000000000000000000000000000000000000000000000600052602260045260246000fd5b6000600282049050600182168061109957607f821691505b6020821081036110ac576110ab611052565b5b50919050565b7f4e487b7100000000000000000000000000000000000000000000000000000000600052601160045260246000fd5b60006110ec82610a06565b91507fffffffffffffffffffffffffffffffffffffffffffffffffffffffffffffffff820361111e5761111d6110b2565b5b600182019050919050565b60008190508160005260206000209050919050565b60006020601f8301049050919050565b600082821b905092915050565b60006008830261118b7fffffffffffffffffffffffffffffffffffffffffffffffffffffffffffffffff8261114e565b611195868361114e565b95508019841693508086168417925050509392505050565b6000819050919050565b60006111d26111cd6111c884610a06565b6111ad565b610a06565b9050919050565b6000819050919050565b6111ec836111b7565b6112006111f8826111d9565b84845461115b565b825550505050565b600090565b611215611208565b6112208184846111e3565b505050565b5b818110156112445761123960008261120d565b600181019050611226565b5050565b601f8211156112895761125a81611129565b6112638461113e565b81016020851015611272578190505b61128661127e8561113e565b830182611225565b50505b505050565b600082821c905092915050565b60006112ac6000198460080261128e565b1980831691505092915050565b60006112c5838361129b565b9150826002028217905092915050565b6112de82610a78565b67ffffffffffffffff8111156112f7576112f6610c36565b5b6113018254611081565b61130c828285611248565b600060209050601f83116001811461133f576000841561132d578287015190505b61133785826112b9565b86555061139f565b601f19841661134d86611129565b60005b8281101561137557848901518255600182019150602085019450602081019050611350565b86831015611392578489015161138e601f89168261129b565b8355505b6001600288020188555050505b505050505050565b60006113b282610a06565b91506113bd83610a06565b92508282039050818111156113d5576113d46110b2565b5b92915050565b7f4e487b7100000000000000000000000000000000000000000000000000000000600052603260045260246000fdfea26469706673582212205dc5f8e99c0285849bf6770a2506ddaee1bf27fb976eff2353d0d0687c7f5b8764736f6c63430008120033",
  "linkReferences": {},
  "deployedLinkReferences": {}
}